:020000040800F2
:10000000F806002055020008711400086914000861
:100010006D140008010400084115000800000000EC
:10002000000000000000000000000000791400083B
:100030001104000800000000751400087D14000879
:100040006F0200086F0200086F0200086F020008CC
:100050006F0200086F0200086F0200086F020008BC
:100060006F0200086F0200086F0200086F020008AC
:100070006F0200086F0200086F0200086F0200089C
:100080006F0200086F0200086F0200086F0200088C
:10009000050400086F0200086F0200086F020008E4
:1000A0006F0200086F0200086F0200086F0200086C
:1000B0006F0200086F0200086F0200086F0200085C
:1000C0006F0200086F0200086F0200086F0200084C
:1000D0006F0200086F0200086F0200086F0200083C
:1000E0006F0200086F0200086F0200086F0200082C
:1000F0006F0200086F0200086F0200086F0200081C
:100100006F0200086F0200086F0200086F0200080B
:100110006F0200086F0200086F0200086F020008FB
:100120006F0200086F0200086F0200086F020008EB
:100130006F0200086F0200086F0200086F020008DB
:100140006F0200086F0200086F0200086F020008CB
:100150006F0200086F0200086F0200086F020008BB
:100160006F0200086F0200086F0200086F020008AB
:100170006F0200086F0200086F0200080000000014
:100180006F0200086F02000800F002F800F052F859
:1001900014A696E8000CB244B344DA4501D100F04D
:1001A00049F8BAE80F000FA696E83000A5EB040561
:1001B00004EB0607AAEB0704A7F101074FEA1515A0
:1001C0004FEA3414A4F10104AC4201D300F032F838
:1001D00013F0010F18BFFB1A43F0010300F001F800
:1001E000DBE718473815000058150000103A24BF07
:1001F00078C878C1FAD8520724BF30C830C144BF8C
:1002000004680C6070470000704700000023002461
:1002100000250026103A28BF78C1FBD8520728BF16
:1002200030C148BF0B6070471FB501F061FA1FBDB8
:1002300010B510BD00F0A9F81146FFF7F5FF01F069
:10024000D3F900F0C7F803B4FFF7F2FF03BC00F0E6
:10025000CFF800000948804709480047FEE7FEE75D
:10026000FEE7FEE7FEE7FEE7FEE7FEE7FEE7FEE766
:1002700004480549054A064B70470000251500084B
:1002800089010008F8000020F8060020F80200208C
:10029000F802002053EA020C00F069802DE9F04BCF
:1002A0004FF00006002B1FBFB3FA83F503FA05F4E5
:1002B00024FA05F65E4012BF1643B2FA82F502FA3E
:1002C00005F4C5F120051EBF22FA05FC44EA0C0422
:1002D000203556EA044C4FEA144418BF641C4FF012
:1002E00000084FF00009904271EB030C39D300294C
:1002F00019BFB1FA81F701FA07F6B0FA80F700FAF0
:1003000007F6C7F120071EBF20FA07FC46EA0C06D5
:100310002037B6FBF4FCA7EB0507103F07F01F0BD7
:10032000CBF120062CFA06F60CFA0BFB44BFB346C1
:100330000026202FA4BF5E464FF0000B5BEA060CA0
:1003400008BF4FF0010B19EB0B0948EB0608ABFB9C
:10035000027C06FB02CC0BFB03CCC01B71EB0C0137
:10036000C1E70B46024641464846BDE8F08B13B54F
:10037000084318BF4FF0FF300146AFF30080BDE8DF
:100380001C407047704770477047754600F02CF866
:10039000AE4605006946534620F00700854618B072
:1003A00020B5FFF765FFBDE820404FF000064FF095
:1003B00000074FF000084FF0000BAC46ACE8C00956
:1003C000ACE8C009ACE8C009ACE8C00921F00701FD
:1003D0008D46704710B50446AFF300802046BDE857
:1003E0001040FFF730BF00000048704710000020A9
:1003F00001491820ABBEFEE726000200704700004E
:10040000FEE7000040F2A400C2F2000000F076B95E
:100410007047000090F82020013A012A08D80068AF
:1004200000F114020020136819431160704700BFE7
:1004300000F1240201204FF4802113681943116058
:100440007047000010B590F820E0D0F800C0AEF181
:10045000010EBEF1010FDCF808E011D81EF0E05FDC
:1004600018D0CEF3016E012000FA0EF018608B68F0
:10047000D3B14868CC6844EAC000034318E000BF29
:1004800000F1240101204FF480220B681A430A6016
:1004900010BD00BF00F1240101204FF400120B68D1
:1004A0001A430A6010BD00BF0868CB6843EA405396
:1004B0000CEB0E10C0F880310B69C0F88431097D57
:1004C000012905D100F5C2710B6843F480730B60FC
:1004D0005168C0F88C11126800F5C071C0F888210D
:1004E000002001220B681A430A6010BD90F82020FA
:1004F000013A012A30D8B0B546F20060C4F20000DB
:10050000026842F001020260026822F47C5202603A
:10051000D1F814E0CC694A6A0368012C43EA02224C
:1005200002600EF01F024FF0010303FA02F2C369EA
:100530006FEA020C23EA0203C36113D02CBBC36829
:1005400003EA0C03C360CB688C8844EA034300EBE6
:10055000CE0423640B4611E0416A41F480214162DC
:1005600001207047C3681343C3600B688C8844EA5A
:10057000034300EBCE04236401F10C038C681B8859
:1005800043EA044300EBCE04636443688D6943EAA5
:100590000204D1F810E0096A002D08BF03EA0C0438
:1005A00044604369BEF1000F43EA020408BF03EA56
:1005B0000C040129446102D1C1691143C161016880
:1005C00021F0010101600020B0BD00007047000073
:1005D00010B590F82040013C012C7BD8D0F800C029
:1005E00000290CBFDCF80C40DCF81040A4077BD0DD
:1005F0000CEB011CDCF8B0410CF5D87E14F00404BF
:100600009460DCF8B04119BFE4085460640D1460D4
:10061000DEF800400CF5DA7E04F00204D460DCF869
:10062000B44124075ABFDEF8004004F00F04082448
:100630001461DEF800400029C4F307249461DEF859
:1006400000404FEA14445461DCF8B8211A70026883
:1006500002EB0112D2F8B8214FEA12225A70026856
:1006600002EB0112D2F8B8214FEA12429A700268E6
:1006700002EB0112D2F8B8214FEA1262DA70026876
:1006800002EB0112D2F8BC211A71026802EB0112CE
:10069000D2F8BC214FEA12225A71026802EB011211
:1006A000D2F8BC214FEA12429A71026802EB0112A1
:1006B000D2F8BC214FEA1262DA7100680CBF00F177
:1006C0000C0100F11001002020220B681A430A607F
:1006D00010BD00BF00F1240101204FF480220B68FF
:1006E0001A430A6010BD00BF00F1240101204FF43D
:1006F00000120B681A430A6010BD00002DE9F04F8C
:1007000081B0044600684669D0F804908768D0F844
:100710000CB0D0F810A0D0F81880F10704D1002553
:1007200030071DD424E000BFF90710D00121BA071B
:10073000816009D4780700F1AF80380700F1B680F6
:10074000204600F019FA02E0204600F017FA0025D2
:10075000F80500F18780F80300F1B180300707D574
:100760001BF0100004D0206845F400751021C16012
:10077000700708D51BF0080005D020680821C1606B
:10078000204600F0B9F9B00706D52068C068800798
:1007900002D0204600F0B2F9700607D51AF010001A
:1007A00004D0206845F4806510210161B00608D5A9
:1007B0001AF0080005D0206808210161204600F0E9
:1007C000A7F9F00606D520680069800702D0204608
:1007D00000F0A0F9B00308D519F0100005D020688A
:1007E00010214160204600F097F9F00308D519F078
:1007F000080005D0206808214160204600F0C8F9B3
:10080000300440F19B805FEA497040F1948006F427
:10081000807008EA102028435FEA8871014648BFCB
:1008200041F00201B20558BF01465FEA48700D462B
:1008300048BF45F00405700558BF0D46300540F12E
:100840007A8018F0700000F07680103800090528D2
:100850006CD8DFE800F003595D61656945F0080573
:1008600064E000BF20684FF48071BA0581600BD44A
:10087000780515D438051DD4204600F081F9F80319
:100880007FF56CAF1BE000BF204600F07BF9F8035A
:100890007FF564AF13E000BF4FF4006558E700BF79
:1008A00005F50055F8037FF559AF08E04FF4805582
:1008B0004EE700BF05F58045F8037FF54FAF206890
:1008C0004FF48031BA0381600AD4780310D438031E
:1008D00014D4204600F058F930073FF541AF47E700
:1008E000204600F053F930073FF53AAF40E700BF2C
:1008F00005F5004530073FF533AF39E705F580359D
:1009000030073FF52DAF33E745F010050EE000BF8F
:1009100045F020050AE000BF45F0400506E000BFB5
:1009200045F0800502E000BF45F4807520688169CC
:1009300021F07001816120680421416055B1606A35
:1009400040EA05012046616201B0BDE8F04FFFF7C3
:100950003DBE00BF01B0BDE8F08F0000002804BF1D
:1009600001207047B0B5044690F8200010B9204629
:1009700000F06EF82068016841F00101016000F0AC
:10098000DFF9054620684168C90705D100F0D8F9AC
:10099000401B0B28F6D310E0016821F00201016032
:1009A00000F0CEF9054600BF2068416889070DD5E3
:1009B00000F0C6F9401B0B28F6D3606A052140F40D
:1009C00000306062012084F82010B0BD217E0268F2
:1009D000012922F0800208BF80320260617E026835
:1009E000012922F0400208BF40320260A17E026865
:1009F000012922F0200208BF20320260E17E026855
:100A0000012922F0100218BF10320260217F026813
:100A1000012922F0080208BF08320260617F0268E3
:100A2000012922F0040208BF04320260D4E901C2A5
:100A3000D4E9033561691A432A431143ACF1010239
:100A40001143C16100200121606284F82010B0BD13
:100A50002DE9F04385B040F20044C4F2020400687E
:100A6000A4F5D031884203D005B0BDE8F08300BFC3
:100A70004FF0000843F63000CDF80080C4F20200C9
:100A800001696D4641F00071016101694FF0020991
:100A900001F0007100910099CDF8008001680326F3
:100AA00041F0020101600068092700F00200009097
:100AB00000984FF480700090012002902046294653
:100AC000CDF804900396049700F064F84FF400709A
:100AD000CDE9000920462946CDE90286049700F0B9
:100AE00059F814200121002200F0ACF9142000F084
:100AF00097F905B0BDE8F0837047000040F2CC03E1
:100B0000C2F2000303F108020021FFF761BD0000FB
:100B1000704700007047000070470000B0B5044601
:100B200090F8200001281DD1022084F820002068C0
:100B3000016821F00101016000F002F9054600BFE3
:100B400020684068C00713D000F0FAF8401B0B285B
:100B5000F6D3606A40F400306062052084F820001B
:100B60000120B0BD606A40F4002060620120B0BD89
:100B700000206062B0BD00007047000070470000B8
:100B80007047000070470000704700007047000089
:100B9000704700002DE9F04F82B000F13E4707F1A9
:100BA000FF77860546EA972741F60046C4F202061B
:100BB000082243F6004EB04208BF0722C4F2010EDD
:100BC000072F38BF3A46002600274FF00008009252
:100BD00009E000BF08F101080237B8F1100F06F173
:100BE000040600F0A3800D68012202FA08F415EA59
:100BF0000409EFD0D1F804B003220BF0030CACF1E0
:100C00000105BA40012D6FEA020A0FD88268CD684B
:100C100002EA0A02BD402A4382604268A243CBF343
:100C2000001404FA08F42243426005E0BCF1030F0B
:100C300002D14FF0030C1EE0C2688C6802EA0A027F
:100C4000BC402243BCF1020FC26014D16FF003021A
:100C500002EA58020244D2F820C006F01C040F2316
:100C60000D69A3402CEA0303A5402B431362D1F87E
:100C700004B00BF0030C02680CFA07F302EA0A0254
:100C80001A431BF4403F0260A4D0002243F6440301
:100C90000192C4F202031A684FF6084C42F48042F3
:100CA0001A601A68CFF6FF7C02F480420192019A22
:100CB00028F00302724452F80C3006F00C050F24A1
:100CC000AC40A343009C04FA05F52B4342F80C30DA
:100CD000DEF808204B6842EA090543F60C4CDC02BA
:100CE00058BF22EA0905CEF80850C4F2010CDCF81E
:100CF00000209C0242EA090558BF22EA0905CCF807
:100D00000050DEF804209C0342EA090558BF22EA9D
:100D10000905CEF80450DEF80020DB0342EA09059D
:100D200058BF22EA0905CEF8005053E702B0BDE8EB
:100D3000F08F00000069084018BF012070470000D4
:100D400040F2F000C2F200000068704740F200007C
:100D500040F2F001C2F20000C2F2000100780A681D
:100D6000104408607047000080B543F60040C4F2AC
:100D70000200016841F400710160016841F4806182
:100D80000160016841F480710160032000F086F881
:100D90000F2000F005F800F027F8002080BD0000CB
:100DA00070B540F20006C2F2000640F20C01327843
:100DB000C2F200014FF47A730968B3FBF2F2044601
:100DC000B1FBF2F1084600F039FB0F2C4FF00105A2
:100DD00008D838B94FF0FF3021460022002500F036
:100DE00031F87460284670BD82B0002043F640019F
:100DF0000190C4F202014A6842F480424A604A68A3
:100E000002F480420192019A0090086840F08050FC
:100E10000860086800F080500090009802B07047A9
:100E2000002848BF704700F01F01012202FA01F1BB
:100E30001C2202EAD0004EF20012CEF200028150D3
:100E40007047000010B54EF60C5CCEF2000CDCF8DA
:100E50000030C3F3022E8EF00704042C28BF0424B4
:100E6000BEF103034FF0FF3E0EFA04F438BF002337
:100E7000A14399400EFA03F39A43114300F00F0285
:100E800000F160430901043A03F564436244002819
:100E900048BF02F10C03197010BD00004EF60C5152
:100EA000CEF200010A684FF6FF031A4060F30A22EF
:100EB00042F0806040F0FD7008607047002804BF79
:100EC000012070472DE9F04143F60808C4F20208FA
:100ED0000446D8F8F8030D4600F00700884207D210
:100EE00088F8F853D8F8F80300F00700A84277D143
:100EF0002068810717D5410705D5D8F8001041F4BF
:100F0000E051C8F80010010705D5D8F8001041F4E9
:100F10006041C8F80010D8F80010A26821F0F00174
:100F20001143C8F80010C00740D1D8F8F80300F00A
:100F30000700A84207D988F8F853D8F8F80300F05A
:100F40000700A8424CD12068410707D5D8F8001007
:100F5000E26821F4E0511143C8F80010000708D5F9
:100F6000D8F80000216920F4604040EAC100C8F8C8
:100F7000000000F055F8D8F8001041F20A72C1F3F1
:100F80000311C0F60002515C40F20C0220FA01F19C
:100F900040F20400C2F200000068C2F200021160D8
:100FA000FFF7FEFE0020BDE8F08100BF6068811EF3
:100FB000022907D258F8081C89015CBF0120BDE84E
:100FC000F08111E0012807D158F8081C89035CBFA3
:100FD0000120BDE8F08107E058F8081C890703D418
:100FE0000120BDE8F08100BFD8F8001021F0030116
:100FF0000843C8F80000FFF7A3FE064641F2883711
:10100000D8F80000616800F00C00B0EB810F8CD0C4
:10101000FFF796FE801BB842F2D90320BDE8F081AD
:1010200010B543F60404C4F20204606800F00C003A
:1010300008280BD0042819BF42F20040C0F2F40087
:1010400047F64000C0F27D1010BD00BF2068216847
:101050002368490247F64001C0F27D1100F03F02CB
:10106000C3F388105CBF42F20041C0F2F401A1FB5F
:1010700000010023FFF70EF921680222C1F30141AC
:1010800002EB4101B0FBF1F010BD0000002804BFED
:10109000012070472DE9F04182B00446007843F604
:1010A0000006C007C4F202060CD0B06800F00C00C5
:1010B000042840F081803068800303D560680028F0
:1010C00000F06A81207880071BD5B06810F00C0F03
:1010D00009D0B06800F00C00082840F087807068E4
:1010E000400200F183803068800703D5E068012862
:1010F00040F052813068216920F0F80040EAC100D8
:1011000030602078000713D4207840072AD4A569DE
:10111000002D00F03C81B06800F00C00082840F081
:10112000A180012D40F01081012002B0BDE8F081C6
:101130006069002840F20000C4F2472000F07E8081
:101140000121C0F8801EFFF7FBFD0546706F800788
:10115000DAD4FFF7F5FD401B0228F7D9032002B0CF
:10116000BDE8F081306C5FEAC0080AD4002001902D
:10117000306C40F080503064306C00F08050019052
:10118000019847F20007C4F200073868C00547D449
:10119000386840F480703860FFF7D2FD054600BF24
:1011A0003868C0053CD4FFF7CBFD401B0228F7D9B7
:1011B000032002B0BDE8F081B06800F00C00082800
:1011C00003D1706840023FF576AF6068B0F5803FAC
:1011D00007D0B0F5A02F40F09B80306840F480200D
:1011E0003060306840F4803030609BE0E068002878
:1011F0005CD00020C4F2472001210160FFF7A0FD70
:10120000054600BF306880073FF574AFFFF798FDD3
:10121000401B0228F6D9032002B0BDE8F08100BFD0
:10122000A068012805D0052854D1306F40F0040093
:101230003067306F40F00100306755E00021C0F8A2
:10124000801EFFF77DFD0546706F80077FF55CAF60
:10125000FFF776FD401B0228F6D9032002B0BDE857
:10126000F08100BF0027C4F2472700203866FFF74F
:1012700067FD022D05460DD13068800140F1908058
:10128000FFF75EFD401B02284FF00300F4D902B0C7
:10129000BDE8F0813068800179D5FFF751FD401B32
:1012A00002284FF00300F5D9F1E700BF0020C4F297
:1012B000472000210160FFF743FD054630688007A5
:1012C0007FF51FAFFFF73CFD401B02284FF00300E6
:1012D000F4D9DCE7316F002821F001013167316F6B
:1012E00021F0040131677DD0FFF72AFD054641F268
:1012F000883700BF306F800700F18680FFF720FD40
:10130000401BB842F6D9032002B0BDE8F08100BF0F
:101310003168002821F480313160316821F4802166
:1013200031607BD0FFF70CFD054600BF30688003BD
:101330003FF5C8AEFFF704FD401B6428F6D9032033
:1013400002B0BDE8F08100BF7068E16900F480027E
:101350008A4221D1216A00F03F028A421CD147F61D
:10136000C071626A0140B1EB821F15D1A16A4FF6CC
:10137000FF73C903994300F44032A1F580318A42DA
:101380000AD1E16A00F07060B0EB016F04D1002077
:1013900002B0BDE8F08100BF012002B0BDE8F081DD
:1013A00004F11C052FCD084340EA8210D9034FF603
:1013B000FF729143A1F5803140EA056008437060F7
:1013C00001203866FFF7BCFC044600BF306880018E
:1013D000DDD4FFF7B5FC001B02284FF00300F5D960
:1013E00055E700BFFFF7ACFC054641F2883700BF68
:1013F000306F800708D5FFF7A3FC401BB8424FF0C1
:101400000300F5D943E700BFB8F1000F3FF57FAE09
:10141000306C20F08050306479E600BFFFF790FC1C
:10142000054600BF306880037FF54CAEFFF788FCAF
:10143000401B64284FF00300F4D928E7411E002028
:10144000B0EB116F1CBF012070474EF21002CEF2BC
:10145000000251604EF62351CEF20001F0230B70D2
:101460000721906011607047FEE70000FEE7000072
:10147000FEE700007047000070470000FFF766BC01
:10148000B0B592B0002443F640000B94CDE9094476
:10149000CDE907440594CDE90344CDE90144009426
:1014A000C4F202000168022541F080510160006829
:1014B00000F080500090009847F200000094C4F2C1
:1014C0000000016841F480410160006800F4804040
:1014D000009000980120099010200A9008200E909A
:1014E0004820CDE90F050420119006A80695CDE906
:1014F0000C54FFF7CBFD18B172B600BFFEE700BF7A
:101500000F20CDE901054FF48050CDE9040401A876
:1015100002210394FFF7D2FC10B172B6FEE700BFC0
:1015200012B0B0BD4EF68850CEF20000016841F412
:101530007001016070470000C0F8011070470000A2
:10154000FEE7000010B504468068A189FFF7F2FBB2
:10155000A178814205D0A0700120E070FFF7F0FB78
:101560002071E07850B1FFF7EBFB2179401A322867
:1015700004D3A07800212070E17000E02078617829
:10158000884208BF10BD28B1204600F02BF8207813
:10159000607010BD204600F007F82078607010BD24
:1015A000816082817047000040F27003C2F2000344
:1015B00003F10C01884218BF704740F20800C2F2E4
:1015C00000000178012903D029B9012201E000BF00
:1015D00000221971027003F1340003F11C011A1D7D
:1015E000FEF730BF704700008CB040F20008C4F234
:1015F0000208FFF7B9FBFFF743FF002743F630006F
:10160000CDE905770197C4F202000168012541F098
:1016100080010160016801F0800101910199019749
:10162000016841F001010160016801F001010191CF
:1016300001990197016841F002010160006802A967
:1016400000F00200019001980220CDE90207404617
:101650000495FFF79FFA40F27004C2F20004A8F567
:10166000CE31204640F8341F04214FF460224FF45D
:101670008013C0E90117C0E90372C0E90537878309
:10168000FFF76CF910B172B6FEE700BF0A20CDE992
:10169000067042F2202004F13406CDE90207CDE9BC
:1016A000040702A930460A95CDE908750B97FEF7A5
:1016B0001DFF04F10C05284641460222FFF770FF8A
:1016C0003046FFF72BFA0520E06240F22220E0616D
:1016D000201DC821C4E9097784F83070FFF72CFF7A
:1016E00030460221FEF796FE2846FFF72BFFFBE768
:1016F000F1EE100A4FF6FF71C0F2C03120EA01008E
:1017000040F04070E1EE100A704700000000000059
:101710000000010203040607080900004017000842
:101720000000002010000000EC0100085017000825
:1017300010000020E80600000C0200080000000075
:101740000100000010000000010000000024F4006F
:040000050800018965
:00000001FF
